:1000000012C019C018C017C016C015C014C013C044
:1000100012C011C010C00FC00EC00DC00CC00BC06C
:100020000AC009C008C011241FBECFE5D4E0DEBF5E
:10003000CDBF0CD02AC0E4CF20ED37E004C0F901D9
:100040003197F1F701970097D1F708958FEF87BBAC
:1000500018BA4FEF20ED37E048BB88EE93E003C0BD
:10006000F9013197F1F701975FEF8F3F9507C1F7DE
:1000700018BA88EE93E003C0F9013197F1F70197C0
:0E0080005FEF8F3F9507C1F7E7CFF894FFCFF2
:00000001FF
