:1000000012C019C018C017C016C015C014C013C044
:1000100012C011C010C00FC00EC00DC00CC00BC06C
:100020000AC009C008C011241FBECFE5D4E0DEBF5E
:10003000CDBF02D023C0E4CF8EEF87BB18BA8FEFBD
:1000400084BB15BA82EA8FBD81E18EBD80E197E263
:1000500097BD86BD88E293E29BBD8ABD99BD88BDF0
:10006000A89AA998B09905C0A89AA998AA98AB9AF5
:10007000F9CFA89AA998AA9AAB98F4CFF894FFCF91
:00000001FF
