:1000000012C019C018C017C016C015C014C013C044
:1000100012C011C010C00FC00EC00DC00CC00BC06C
:100020000AC009C008C011241FBECFE5D4E0DEBF5E
:10003000CDBF0CD032C0E4CF20ED37E004C0F901D1
:100040003197F1F701970097D1F708958FEF87BBAC
:1000500018BA40E050E0A1E0B0E060ED77E028B3EE
:10006000CD01042E02C0880F991F0A94E2F7282BB5
:1000700028BB88EC90E003C0FB013197F1F70197B2
:100080002FEF8F3F9207C1F718BA4F5F5F4F48308D
:0E00900051052CF340E050E0E2CFF894FFCF92
:00000001FF
