:1000000012C019C018C017C016C015C014C013C044
:1000100012C011C010C00FC00EC00DC00CC00BC06C
:100020000AC009C008C011241FBECFE5D4E0DEBF5E
:10003000CDBF1BD02FC0E4CF80E886B986B18360E6
:1000400086B90895DF93CF930F92CDB7DEB789833A
:100050008981806487B9369A349BFECF24B135B14B
:10006000C9010F90CF91DF91089580E886B986B1DC
:10007000836086B98FEF81BB80E0E4DF8C529140D2
:1000800038F080E0DFDF8050944010F4909AF4CF95
:080090009098F2CFF894FFCF25
:00000001FF
