:1000000012C024C023C022C021C020C01FC01EC0F7
:100010001DC038C01BC01AC019C018C017C016C0F8
:1000200015C014C013C011241FBECFE5D4E0DEBF3D
:10003000CDBF10E0A0E6B0E0ECEBF0E002C0059030
:100040000D92A236B107D9F702D036C0D9CF8FEFC3
:1000500087BB18BA85E083BF81E089BF789429E126
:1000600030E0C09A88E893E1F9013197F1F7019700
:10007000D9F7C09888E893E1F9013197F1F7019732
:10008000D9F7EFCF1F920F920FB60F9211248F93D3
:1000900080916000882311F0C19A01C0C19810922C
:1000A0006000882319F481E0809360008F910F90A5
:0C00B0000FBE0F901F901895F894FFCF22
:0200BC00010041
:00000001FF
